{
  "contractName": "Asignatura",
  "abi": [
    {
      "inputs": [
        {
          "internalType": "string",
          "name": "_nombre",
          "type": "string"
        },
        {
          "internalType": "string",
          "name": "_curso",
          "type": "string"
        }
      ],
      "stateMutability": "nonpayable",
      "type": "constructor"
    },
    {
      "inputs": [
        {
          "internalType": "string",
          "name": "mensaje",
          "type": "string"
        },
        {
          "internalType": "string",
          "name": "dni",
          "type": "string"
        }
      ],
      "name": "MyError",
      "type": "error"
    },
    {
      "inputs": [
        {
          "internalType": "string",
          "name": "mensaje",
          "type": "string"
        },
        {
          "internalType": "address",
          "name": "direccion",
          "type": "address"
        }
      ],
      "name": "MyError2",
      "type": "error"
    },
    {
      "inputs": [
        {
          "internalType": "string",
          "name": "",
          "type": "string"
        }
      ],
      "name": "DNIs",
      "outputs": [
        {
          "internalType": "bool",
          "name": "",
          "type": "bool"
        }
      ],
      "stateMutability": "view",
      "type": "function",
      "constant": true
    },
    {
      "inputs": [
        {
          "internalType": "address",
          "name": "",
          "type": "address"
        },
        {
          "internalType": "uint256",
          "name": "",
          "type": "uint256"
        }
      ],
      "name": "calificaciones",
      "outputs": [
        {
          "internalType": "enum Asignatura.TipoNota",
          "name": "tipo",
          "type": "uint8"
        },
        {
          "internalType": "uint256",
          "name": "calificacion",
          "type": "uint256"
        }
      ],
      "stateMutability": "view",
      "type": "function",
      "constant": true
    },
    {
      "inputs": [],
      "name": "cerrada",
      "outputs": [
        {
          "internalType": "bool",
          "name": "",
          "type": "bool"
        }
      ],
      "stateMutability": "view",
      "type": "function",
      "constant": true
    },
    {
      "inputs": [],
      "name": "coordinador",
      "outputs": [
        {
          "internalType": "address",
          "name": "",
          "type": "address"
        }
      ],
      "stateMutability": "view",
      "type": "function",
      "constant": true
    },
    {
      "inputs": [],
      "name": "curso",
      "outputs": [
        {
          "internalType": "string",
          "name": "",
          "type": "string"
        }
      ],
      "stateMutability": "view",
      "type": "function",
      "constant": true
    },
    {
      "inputs": [
        {
          "internalType": "address",
          "name": "",
          "type": "address"
        }
      ],
      "name": "datosAlumno",
      "outputs": [
        {
          "internalType": "string",
          "name": "nombre",
          "type": "string"
        },
        {
          "internalType": "string",
          "name": "DNI",
          "type": "string"
        },
        {
          "internalType": "string",
          "name": "email",
          "type": "string"
        }
      ],
      "stateMutability": "view",
      "type": "function",
      "constant": true
    },
    {
      "inputs": [
        {
          "internalType": "address",
          "name": "",
          "type": "address"
        }
      ],
      "name": "datosProfesor",
      "outputs": [
        {
          "internalType": "string",
          "name": "nombre",
          "type": "string"
        }
      ],
      "stateMutability": "view",
      "type": "function",
      "constant": true
    },
    {
      "inputs": [
        {
          "internalType": "uint256",
          "name": "",
          "type": "uint256"
        }
      ],
      "name": "evaluaciones",
      "outputs": [
        {
          "internalType": "string",
          "name": "nombre",
          "type": "string"
        },
        {
          "internalType": "uint256",
          "name": "fecha",
          "type": "uint256"
        },
        {
          "internalType": "uint256",
          "name": "puntos",
          "type": "uint256"
        }
      ],
      "stateMutability": "view",
      "type": "function",
      "constant": true
    },
    {
      "inputs": [
        {
          "internalType": "uint256",
          "name": "",
          "type": "uint256"
        }
      ],
      "name": "matriculas",
      "outputs": [
        {
          "internalType": "address",
          "name": "",
          "type": "address"
        }
      ],
      "stateMutability": "view",
      "type": "function",
      "constant": true
    },
    {
      "inputs": [],
      "name": "nombre",
      "outputs": [
        {
          "internalType": "string",
          "name": "",
          "type": "string"
        }
      ],
      "stateMutability": "view",
      "type": "function",
      "constant": true
    },
    {
      "inputs": [],
      "name": "owner",
      "outputs": [
        {
          "internalType": "address",
          "name": "",
          "type": "address"
        }
      ],
      "stateMutability": "view",
      "type": "function",
      "constant": true
    },
    {
      "inputs": [
        {
          "internalType": "uint256",
          "name": "",
          "type": "uint256"
        }
      ],
      "name": "profesores",
      "outputs": [
        {
          "internalType": "address",
          "name": "",
          "type": "address"
        }
      ],
      "stateMutability": "view",
      "type": "function",
      "constant": true
    },
    {
      "inputs": [],
      "name": "version",
      "outputs": [
        {
          "internalType": "uint256",
          "name": "",
          "type": "uint256"
        }
      ],
      "stateMutability": "view",
      "type": "function",
      "constant": true
    },
    {
      "stateMutability": "payable",
      "type": "receive",
      "payable": true
    },
    {
      "inputs": [
        {
          "internalType": "address",
          "name": "_coordinador",
          "type": "address"
        }
      ],
      "name": "setCoordinador",
      "outputs": [],
      "stateMutability": "nonpayable",
      "type": "function"
    },
    {
      "inputs": [],
      "name": "cerrar",
      "outputs": [],
      "stateMutability": "nonpayable",
      "type": "function"
    },
    {
      "inputs": [],
      "name": "evaluacionesLength",
      "outputs": [
        {
          "internalType": "uint256",
          "name": "",
          "type": "uint256"
        }
      ],
      "stateMutability": "view",
      "type": "function",
      "constant": true
    },
    {
      "inputs": [
        {
          "internalType": "string",
          "name": "_nombre",
          "type": "string"
        },
        {
          "internalType": "uint256",
          "name": "_fecha",
          "type": "uint256"
        },
        {
          "internalType": "uint256",
          "name": "_puntos",
          "type": "uint256"
        }
      ],
      "name": "creaEvaluacion",
      "outputs": [
        {
          "internalType": "uint256",
          "name": "",
          "type": "uint256"
        }
      ],
      "stateMutability": "nonpayable",
      "type": "function"
    },
    {
      "inputs": [],
      "name": "matriculasLength",
      "outputs": [
        {
          "internalType": "uint256",
          "name": "",
          "type": "uint256"
        }
      ],
      "stateMutability": "view",
      "type": "function",
      "constant": true
    },
    {
      "inputs": [
        {
          "internalType": "string",
          "name": "_nombre",
          "type": "string"
        },
        {
          "internalType": "string",
          "name": "_DNI",
          "type": "string"
        },
        {
          "internalType": "string",
          "name": "_email",
          "type": "string"
        }
      ],
      "name": "automatricula",
      "outputs": [],
      "stateMutability": "nonpayable",
      "type": "function"
    },
    {
      "inputs": [],
      "name": "quienSoy",
      "outputs": [
        {
          "internalType": "string",
          "name": "_nombre",
          "type": "string"
        },
        {
          "internalType": "string",
          "name": "_DNI",
          "type": "string"
        },
        {
          "internalType": "string",
          "name": "_email",
          "type": "string"
        }
      ],
      "stateMutability": "view",
      "type": "function",
      "constant": true
    },
    {
      "inputs": [
        {
          "internalType": "address",
          "name": "_profesor",
          "type": "address"
        },
        {
          "internalType": "string",
          "name": "_nombre",
          "type": "string"
        }
      ],
      "name": "addProfesor",
      "outputs": [],
      "stateMutability": "nonpayable",
      "type": "function"
    },
    {
      "inputs": [],
      "name": "profesoresLength",
      "outputs": [
        {
          "internalType": "uint256",
          "name": "",
          "type": "uint256"
        }
      ],
      "stateMutability": "view",
      "type": "function",
      "constant": true
    },
    {
      "inputs": [
        {
          "internalType": "address",
          "name": "_profesor",
          "type": "address"
        }
      ],
      "name": "nombreProfe",
      "outputs": [
        {
          "internalType": "string",
          "name": "_nombre",
          "type": "string"
        }
      ],
      "stateMutability": "view",
      "type": "function",
      "constant": true
    },
    {
      "inputs": [
        {
          "internalType": "address",
          "name": "alumno",
          "type": "address"
        },
        {
          "internalType": "uint256",
          "name": "evaluacion",
          "type": "uint256"
        },
        {
          "internalType": "enum Asignatura.TipoNota",
          "name": "tipo",
          "type": "uint8"
        },
        {
          "internalType": "uint256",
          "name": "calificacion",
          "type": "uint256"
        }
      ],
      "name": "califica",
      "outputs": [],
      "stateMutability": "nonpayable",
      "type": "function"
    },
    {
      "inputs": [
        {
          "internalType": "uint256",
          "name": "evaluacion",
          "type": "uint256"
        }
      ],
      "name": "miNota",
      "outputs": [
        {
          "internalType": "enum Asignatura.TipoNota",
          "name": "tipo",
          "type": "uint8"
        },
        {
          "internalType": "uint256",
          "name": "calificacion",
          "type": "uint256"
        }
      ],
      "stateMutability": "view",
      "type": "function",
      "constant": true
    }
  ],
  "bytecode": "0x60806040526107e56000553480156200001757600080fd5b50604051620036363803806200363683398181016040528101906200003d9190620003bc565b60008290506000815114156200008a576040517f08c379a00000000000000000000000000000000000000000000000000000000081526004016200008190620004c8565b60405180910390fd5b6000829050600081511415620000d7576040517f08c379a0000000000000000000000000000000000000000000000000000000008152600401620000ce9062000560565b60405180910390fd5b33600160006101000a81548173ffffffffffffffffffffffffffffffffffffffff021916908373ffffffffffffffffffffffffffffffffffffffff1602179055508360029080519060200190620001309291906200016f565b508260039080519060200190620001499291906200016f565b506000600960146101000a81548160ff02191690831515021790555050505050620005e7565b8280546200017d90620005b1565b90600052602060002090601f016020900481019282620001a15760008555620001ed565b82601f10620001bc57805160ff1916838001178555620001ed565b82800160010185558215620001ed579182015b82811115620001ec578251825591602001919060010190620001cf565b5b509050620001fc919062000200565b5090565b5b808211156200021b57600081600090555060010162000201565b5090565b6000604051905090565b600080fd5b600080fd5b600080fd5b600080fd5b6000601f19601f8301169050919050565b7f4e487b7100000000000000000000000000000000000000000000000000000000600052604160045260246000fd5b62000288826200023d565b810181811067ffffffffffffffff82111715620002aa57620002a96200024e565b5b80604052505050565b6000620002bf6200021f565b9050620002cd82826200027d565b919050565b600067ffffffffffffffff821115620002f057620002ef6200024e565b5b620002fb826200023d565b9050602081019050919050565b60005b83811015620003285780820151818401526020810190506200030b565b8381111562000338576000848401525b50505050565b6000620003556200034f84620002d2565b620002b3565b90508281526020810184848401111562000374576200037362000238565b5b6200038184828562000308565b509392505050565b600082601f830112620003a157620003a062000233565b5b8151620003b38482602086016200033e565b91505092915050565b60008060408385031215620003d657620003d562000229565b5b600083015167ffffffffffffffff811115620003f757620003f66200022e565b5b620004058582860162000389565b925050602083015167ffffffffffffffff8111156200042957620004286200022e565b5b620004378582860162000389565b9150509250929050565b600082825260208201905092915050565b7f456c206e6f6d627265206465206c6120617369676e6174757261206e6f20707560008201527f6564652073657220766163696f00000000000000000000000000000000000000602082015250565b6000620004b0602d8362000441565b9150620004bd8262000452565b604082019050919050565b60006020820190508181036000830152620004e381620004a1565b9050919050565b7f456c20637572736f2061636164656d69636f206465206c6120617369676e617460008201527f757261206e6f2070756564652073657220766163696f00000000000000000000602082015250565b60006200054860368362000441565b91506200055582620004ea565b604082019050919050565b600060208201905081810360008301526200057b8162000539565b9050919050565b7f4e487b7100000000000000000000000000000000000000000000000000000000600052602260045260246000fd5b60006002820490506001821680620005ca57607f821691505b60208210811415620005e157620005e062000582565b5b50919050565b61303f80620005f76000396000f3fe60806040526004361061016a5760003560e01c80638da5cb5b116100d1578063d017da1f1161008a578063dab6ff2811610064578063dab6ff28146105d8578063deafcc41146105ef578063f8a1c4971461061a578063f967f98614610657576101aa565b8063d017da1f14610534578063d27c3f3c14610571578063d51b4584146105af576101aa565b80638da5cb5b146103fc5780639397f5ac146104275780639e1d8f4b14610464578063bc7b35b21461048f578063c7918139146104ba578063c8373750146104f7576101aa565b8063537668831161012357806353766883146102d457806354fd4d5014610301578063641945bf1461032c578063681d4ca6146103695780636bf8aad6146103925780637810ff1e146103d1576101aa565b80631d2e4d2b146101af57806322c4e394146101d857806330322c9b1461020357806342a6dde21461022c57806344f7a8cc1461026a578063488cf4f5146102a9576101aa565b366101aa576040517f08c379a00000000000000000000000000000000000000000000000000000000081526004016101a190611f9d565b60405180910390fd5b600080fd5b3480156101bb57600080fd5b506101d660048036038101906101d19190612175565b610682565b005b3480156101e457600080fd5b506101ed61099e565b6040516101fa91906121ec565b60405180910390f35b34801561020f57600080fd5b5061022a60048036038101906102259190612262565b6109b1565b005b34801561023857600080fd5b50610253600480360381019061024e91906122c9565b610caf565b60405161026192919061238f565b60405180910390f35b34801561027657600080fd5b50610291600480360381019061028c91906123b8565b610ced565b6040516102a09392919061245c565b60405180910390f35b3480156102b557600080fd5b506102be610daf565b6040516102cb919061249a565b60405180910390f35b3480156102e057600080fd5b506102e9610dbc565b6040516102f8939291906124b5565b60405180910390f35b34801561030d57600080fd5b50610316611028565b604051610323919061249a565b60405180910390f35b34801561033857600080fd5b50610353600480360381019061034e9190612501565b61102e565b604051610360919061252e565b60405180910390f35b34801561037557600080fd5b50610390600480360381019061038b9190612550565b6110d4565b005b34801561039e57600080fd5b506103b960048036038101906103b49190612501565b6113d0565b6040516103c8939291906124b5565b60405180910390f35b3480156103dd57600080fd5b506103e6611592565b6040516103f39190612606565b60405180910390f35b34801561040857600080fd5b506104116115b8565b60405161041e9190612606565b60405180910390f35b34801561043357600080fd5b5061044e60048036038101906104499190612501565b6115de565b60405161045b919061252e565b60405180910390f35b34801561047057600080fd5b506104796116cd565b604051610486919061249a565b60405180910390f35b34801561049b57600080fd5b506104a46116da565b6040516104b1919061252e565b60405180910390f35b3480156104c657600080fd5b506104e160048036038101906104dc91906123b8565b611768565b6040516104ee9190612606565b60405180910390f35b34801561050357600080fd5b5061051e600480360381019061051991906123b8565b6117a7565b60405161052b9190612606565b60405180910390f35b34801561054057600080fd5b5061055b60048036038101906105569190612621565b6117e6565b604051610568919061249a565b60405180910390f35b34801561057d57600080fd5b50610598600480360381019061059391906123b8565b6119a7565b6040516105a692919061238f565b60405180910390f35b3480156105bb57600080fd5b506105d660048036038101906105d19190612501565b611af1565b005b3480156105e457600080fd5b506105ed611c15565b005b3480156105fb57600080fd5b50610604611cc2565b604051610611919061252e565b60405180910390f35b34801561062657600080fd5b50610641600480360381019061063c9190612690565b611d50565b60405161064e91906121ec565b60405180910390f35b34801561066357600080fd5b5061066c611d86565b604051610679919061249a565b60405180910390f35b600960149054906101000a900460ff16156106d2576040517f08c379a00000000000000000000000000000000000000000000000000000000081526004016106c99061274b565b60405180910390fd5b600160009054906101000a900473ffffffffffffffffffffffffffffffffffffffff1673ffffffffffffffffffffffffffffffffffffffff163373ffffffffffffffffffffffffffffffffffffffff1614610762576040517f08c379a0000000000000000000000000000000000000000000000000000000008152600401610759906127b7565b60405180910390fd5b60008190506000815114156107ac576040517f08c379a00000000000000000000000000000000000000000000000000000000081526004016107a390612823565b60405180910390fd5b6000600a60008573ffffffffffffffffffffffffffffffffffffffff1673ffffffffffffffffffffffffffffffffffffffff16815260200190815260200160002060000180546107fb90612872565b80601f016020809104026020016040519081016040528092919081815260200182805461082790612872565b80156108745780601f1061084957610100808354040283529160200191610874565b820191906000526020600020905b81548152906001019060200180831161085757829003601f168201915b5050505050905060008151146108c157836040517ffaf34f7e0000000000000000000000000000000000000000000000000000000081526004016108b89190612916565b60405180910390fd5b6000604051806020016040528085815250905080600a60008773ffffffffffffffffffffffffffffffffffffffff1673ffffffffffffffffffffffffffffffffffffffff1681526020019081526020016000206000820151816000019080519060200190610930929190611e77565b50905050600b859080600181540180825580915050600190039060005260206000200160009091909190916101000a81548173ffffffffffffffffffffffffffffffffffffffff021916908373ffffffffffffffffffffffffffffffffffffffff1602179055505050505050565b600960149054906101000a900460ff1681565b600960149054906101000a900460ff1615610a01576040517f08c379a00000000000000000000000000000000000000000000000000000000081526004016109f89061274b565b60405180910390fd5b6000600a60003373ffffffffffffffffffffffffffffffffffffffff1673ffffffffffffffffffffffffffffffffffffffff1681526020019081526020016000206000018054610a5090612872565b80601f0160208091040260200160405190810160405280929190818152602001828054610a7c90612872565b8015610ac95780601f10610a9e57610100808354040283529160200191610ac9565b820191906000526020600020905b815481529060010190602001808311610aac57829003601f168201915b505050505090506000819050600081511415610b1a576040517f08c379a0000000000000000000000000000000000000000000000000000000008152600401610b1190612990565b60405180910390fd5b610b2386611d93565b610b62576040517f08c379a0000000000000000000000000000000000000000000000000000000008152600401610b5990612a22565b60405180910390fd5b6004805490508510610ba9576040517f08c379a0000000000000000000000000000000000000000000000000000000008152600401610ba090612ab4565b60405180910390fd5b6064831115610bed576040517f08c379a0000000000000000000000000000000000000000000000000000000008152600401610be490612b6c565b60405180910390fd5b60006040518060400160405280866002811115610c0d57610c0c612309565b5b815260200185815250905080600860008973ffffffffffffffffffffffffffffffffffffffff1673ffffffffffffffffffffffffffffffffffffffff168152602001908152602001600020600088815260200190815260200160002060008201518160000160006101000a81548160ff02191690836002811115610c9457610c93612309565b5b02179055506020820151816001015590505050505050505050565b6008602052816000526040600020602052806000526040600020600091509150508060000160009054906101000a900460ff16908060010154905082565b60048181548110610cfd57600080fd5b9060005260206000209060030201600091509050806000018054610d2090612872565b80601f0160208091040260200160405190810160405280929190818152602001828054610d4c90612872565b8015610d995780601f10610d6e57610100808354040283529160200191610d99565b820191906000526020600020905b815481529060010190602001808311610d7c57829003601f168201915b5050505050908060010154908060020154905083565b6000600480549050905090565b6060806060610dca33611d93565b610e09576040517f08c379a0000000000000000000000000000000000000000000000000000000008152600401610e0090612bfe565b60405180910390fd5b6000600560003373ffffffffffffffffffffffffffffffffffffffff1673ffffffffffffffffffffffffffffffffffffffff168152602001908152602001600020604051806060016040529081600082018054610e6590612872565b80601f0160208091040260200160405190810160405280929190818152602001828054610e9190612872565b8015610ede5780601f10610eb357610100808354040283529160200191610ede565b820191906000526020600020905b815481529060010190602001808311610ec157829003601f168201915b50505050508152602001600182018054610ef790612872565b80601f0160208091040260200160405190810160405280929190818152602001828054610f2390612872565b8015610f705780601f10610f4557610100808354040283529160200191610f70565b820191906000526020600020905b815481529060010190602001808311610f5357829003601f168201915b50505050508152602001600282018054610f8990612872565b80601f0160208091040260200160405190810160405280929190818152602001828054610fb590612872565b80156110025780601f10610fd757610100808354040283529160200191611002565b820191906000526020600020905b815481529060010190602001808311610fe557829003601f168201915b505050505081525050905080600001519350806020015192508060400151915050909192565b60005481565b600a60205280600052604060002060009150905080600001805461105190612872565b80601f016020809104026020016040519081016040528092919081815260200182805461107d90612872565b80156110ca5780601f1061109f576101008083540402835291602001916110ca565b820191906000526020600020905b8154815290600101906020018083116110ad57829003601f168201915b5050505050905081565b600960149054906101000a900460ff1615611124576040517f08c379a000000000000000000000000000000000000000000000000000000000815260040161111b9061274b565b60405180910390fd5b61112d33611d93565b1561116d576040517f08c379a000000000000000000000000000000000000000000000000000000000815260040161116490612c90565b60405180910390fd5b60008390506000815114156111b7576040517f08c379a00000000000000000000000000000000000000000000000000000000081526004016111ae90612823565b60405180910390fd5b6000839050600081511415611201576040517f08c379a00000000000000000000000000000000000000000000000000000000081526004016111f890612cfc565b60405180910390fd5b60006007856040516112139190612d58565b908152602001604051809103902060009054906101000a900460ff169050801561127457846040517fbd68b72700000000000000000000000000000000000000000000000000000000815260040161126b9190612de1565b60405180910390fd5b6000604051806060016040528088815260200187815260200186815250905080600560003373ffffffffffffffffffffffffffffffffffffffff1673ffffffffffffffffffffffffffffffffffffffff16815260200190815260200160002060008201518160000190805190602001906112ef929190611e77565b50602082015181600101908051906020019061130c929190611e77565b506040820151816002019080519060200190611329929190611e77565b509050506006339080600181540180825580915050600190039060005260206000200160009091909190916101000a81548173ffffffffffffffffffffffffffffffffffffffff021916908373ffffffffffffffffffffffffffffffffffffffff16021790555060016007876040516113a29190612d58565b908152602001604051809103902060006101000a81548160ff02191690831515021790555050505050505050565b60056020528060005260406000206000915090508060000180546113f390612872565b80601f016020809104026020016040519081016040528092919081815260200182805461141f90612872565b801561146c5780601f106114415761010080835404028352916020019161146c565b820191906000526020600020905b81548152906001019060200180831161144f57829003601f168201915b50505050509080600101805461148190612872565b80601f01602080910402602001604051908101604052809291908181526020018280546114ad90612872565b80156114fa5780601f106114cf576101008083540402835291602001916114fa565b820191906000526020600020905b8154815290600101906020018083116114dd57829003601f168201915b50505050509080600201805461150f90612872565b80601f016020809104026020016040519081016040528092919081815260200182805461153b90612872565b80156115885780601f1061155d57610100808354040283529160200191611588565b820191906000526020600020905b81548152906001019060200180831161156b57829003601f168201915b5050505050905083565b600960009054906101000a900473ffffffffffffffffffffffffffffffffffffffff1681565b600160009054906101000a900473ffffffffffffffffffffffffffffffffffffffff1681565b60606000600a60008473ffffffffffffffffffffffffffffffffffffffff1673ffffffffffffffffffffffffffffffffffffffff16815260200190815260200160002060405180602001604052908160008201805461163c90612872565b80601f016020809104026020016040519081016040528092919081815260200182805461166890612872565b80156116b55780601f1061168a576101008083540402835291602001916116b5565b820191906000526020600020905b81548152906001019060200180831161169857829003601f168201915b50505050508152505090508060000151915050919050565b6000600680549050905090565b600280546116e790612872565b80601f016020809104026020016040519081016040528092919081815260200182805461171390612872565b80156117605780601f1061173557610100808354040283529160200191611760565b820191906000526020600020905b81548152906001019060200180831161174357829003601f168201915b505050505081565b6006818154811061177857600080fd5b906000526020600020016000915054906101000a900473ffffffffffffffffffffffffffffffffffffffff1681565b600b81815481106117b757600080fd5b906000526020600020016000915054906101000a900473ffffffffffffffffffffffffffffffffffffffff1681565b6000600960149054906101000a900460ff1615611838576040517f08c379a000000000000000000000000000000000000000000000000000000000815260040161182f9061274b565b60405180910390fd5b600960009054906101000a900473ffffffffffffffffffffffffffffffffffffffff1673ffffffffffffffffffffffffffffffffffffffff163373ffffffffffffffffffffffffffffffffffffffff16146118c8576040517f08c379a00000000000000000000000000000000000000000000000000000000081526004016118bf90612e62565b60405180910390fd5b6000849050600081511415611912576040517f08c379a000000000000000000000000000000000000000000000000000000000815260040161190990612ef4565b60405180910390fd5b600460405180606001604052808781526020018681526020018581525090806001815401808255809150506001900390600052602060002090600302016000909190919091506000820151816000019080519060200190611974929190611e77565b5060208201518160010155604082015181600201555050600160048054905061199d9190612f43565b9150509392505050565b6000806119b333611d93565b6119f2576040517f08c379a00000000000000000000000000000000000000000000000000000000081526004016119e990612bfe565b60405180910390fd5b6004805490508310611a39576040517f08c379a0000000000000000000000000000000000000000000000000000000008152600401611a3090612fe9565b60405180910390fd5b6000600860003373ffffffffffffffffffffffffffffffffffffffff1673ffffffffffffffffffffffffffffffffffffffff16815260200190815260200160002060008581526020019081526020016000206040518060400160405290816000820160009054906101000a900460ff166002811115611abb57611aba612309565b5b6002811115611acd57611acc612309565b5b81526020016001820154815250509050806000015192508060200151915050915091565b600960149054906101000a900460ff1615611b41576040517f08c379a0000000000000000000000000000000000000000000000000000000008152600401611b389061274b565b60405180910390fd5b600160009054906101000a900473ffffffffffffffffffffffffffffffffffffffff1673ffffffffffffffffffffffffffffffffffffffff163373ffffffffffffffffffffffffffffffffffffffff1614611bd1576040517f08c379a0000000000000000000000000000000000000000000000000000000008152600401611bc8906127b7565b60405180910390fd5b80600960006101000a81548173ffffffffffffffffffffffffffffffffffffffff021916908373ffffffffffffffffffffffffffffffffffffffff16021790555050565b600960009054906101000a900473ffffffffffffffffffffffffffffffffffffffff1673ffffffffffffffffffffffffffffffffffffffff163373ffffffffffffffffffffffffffffffffffffffff1614611ca5576040517f08c379a0000000000000000000000000000000000000000000000000000000008152600401611c9c90612e62565b60405180910390fd5b6001600960146101000a81548160ff021916908315150217905550565b60038054611ccf90612872565b80601f0160208091040260200160405190810160405280929190818152602001828054611cfb90612872565b8015611d485780601f10611d1d57610100808354040283529160200191611d48565b820191906000526020600020905b815481529060010190602001808311611d2b57829003601f168201915b505050505081565b6007818051602081018201805184825260208301602085012081835280955050505050506000915054906101000a900460ff1681565b6000600b80549050905090565b600080600560008473ffffffffffffffffffffffffffffffffffffffff1673ffffffffffffffffffffffffffffffffffffffff1681526020019081526020016000206000018054611de390612872565b80601f0160208091040260200160405190810160405280929190818152602001828054611e0f90612872565b8015611e5c5780601f10611e3157610100808354040283529160200191611e5c565b820191906000526020600020905b815481529060010190602001808311611e3f57829003601f168201915b50505050509050600081905060008151141592505050919050565b828054611e8390612872565b90600052602060002090601f016020900481019282611ea55760008555611eec565b82601f10611ebe57805160ff1916838001178555611eec565b82800160010185558215611eec579182015b82811115611eeb578251825591602001919060010190611ed0565b5b509050611ef99190611efd565b5090565b5b80821115611f16576000816000905550600101611efe565b5090565b600082825260208201905092915050565b7f4e6f207365207065726d697465206c6120726563657063696f6e20646520646960008201527f6e65726f2e000000000000000000000000000000000000000000000000000000602082015250565b6000611f87602583611f1a565b9150611f9282611f2b565b604082019050919050565b60006020820190508181036000830152611fb681611f7a565b9050919050565b6000604051905090565b600080fd5b600080fd5b600073ffffffffffffffffffffffffffffffffffffffff82169050919050565b6000611ffc82611fd1565b9050919050565b61200c81611ff1565b811461201757600080fd5b50565b60008135905061202981612003565b92915050565b600080fd5b600080fd5b6000601f19601f8301169050919050565b7f4e487b7100000000000000000000000000000000000000000000000000000000600052604160045260246000fd5b61208282612039565b810181811067ffffffffffffffff821117156120a1576120a061204a565b5b80604052505050565b60006120b4611fbd565b90506120c08282612079565b919050565b600067ffffffffffffffff8211156120e0576120df61204a565b5b6120e982612039565b9050602081019050919050565b82818337600083830152505050565b6000612118612113846120c5565b6120aa565b90508281526020810184848401111561213457612133612034565b5b61213f8482856120f6565b509392505050565b600082601f83011261215c5761215b61202f565b5b813561216c848260208601612105565b91505092915050565b6000806040838503121561218c5761218b611fc7565b5b600061219a8582860161201a565b925050602083013567ffffffffffffffff8111156121bb576121ba611fcc565b5b6121c785828601612147565b9150509250929050565b60008115159050919050565b6121e6816121d1565b82525050565b600060208201905061220160008301846121dd565b92915050565b6000819050919050565b61221a81612207565b811461222557600080fd5b50565b60008135905061223781612211565b92915050565b6003811061224a57600080fd5b50565b60008135905061225c8161223d565b92915050565b6000806000806080858703121561227c5761227b611fc7565b5b600061228a8782880161201a565b945050602061229b87828801612228565b93505060406122ac8782880161224d565b92505060606122bd87828801612228565b91505092959194509250565b600080604083850312156122e0576122df611fc7565b5b60006122ee8582860161201a565b92505060206122ff85828601612228565b9150509250929050565b7f4e487b7100000000000000000000000000000000000000000000000000000000600052602160045260246000fd5b6003811061234957612348612309565b5b50565b600081905061235a82612338565b919050565b600061236a8261234c565b9050919050565b61237a8161235f565b82525050565b61238981612207565b82525050565b60006040820190506123a46000830185612371565b6123b16020830184612380565b9392505050565b6000602082840312156123ce576123cd611fc7565b5b60006123dc84828501612228565b91505092915050565b600081519050919050565b60005b8381101561240e5780820151818401526020810190506123f3565b8381111561241d576000848401525b50505050565b600061242e826123e5565b6124388185611f1a565b93506124488185602086016123f0565b61245181612039565b840191505092915050565b600060608201905081810360008301526124768186612423565b90506124856020830185612380565b6124926040830184612380565b949350505050565b60006020820190506124af6000830184612380565b92915050565b600060608201905081810360008301526124cf8186612423565b905081810360208301526124e38185612423565b905081810360408301526124f78184612423565b9050949350505050565b60006020828403121561251757612516611fc7565b5b60006125258482850161201a565b91505092915050565b600060208201905081810360008301526125488184612423565b905092915050565b60008060006060848603121561256957612568611fc7565b5b600084013567ffffffffffffffff81111561258757612586611fcc565b5b61259386828701612147565b935050602084013567ffffffffffffffff8111156125b4576125b3611fcc565b5b6125c086828701612147565b925050604084013567ffffffffffffffff8111156125e1576125e0611fcc565b5b6125ed86828701612147565b9150509250925092565b61260081611ff1565b82525050565b600060208201905061261b60008301846125f7565b92915050565b60008060006060848603121561263a57612639611fc7565b5b600084013567ffffffffffffffff81111561265857612657611fcc565b5b61266486828701612147565b935050602061267586828701612228565b925050604061268686828701612228565b9150509250925092565b6000602082840312156126a6576126a5611fc7565b5b600082013567ffffffffffffffff8111156126c4576126c3611fcc565b5b6126d084828501612147565b91505092915050565b7f536f6c6f207065726d697469646f207369206c6120617369676e61747572612060008201527f6573746120616269657274610000000000000000000000000000000000000000602082015250565b6000612735602c83611f1a565b9150612740826126d9565b604082019050919050565b6000602082019050818103600083015261276481612728565b9050919050565b7f536f6c6f207065726d697469646f20616c206f776e6572000000000000000000600082015250565b60006127a1601783611f1a565b91506127ac8261276b565b602082019050919050565b600060208201905081810360008301526127d081612794565b9050919050565b7f456c206e6f6d627265206e6f2070756564652073657220766163696f00000000600082015250565b600061280d601c83611f1a565b9150612818826127d7565b602082019050919050565b6000602082019050818103600083015261283c81612800565b9050919050565b7f4e487b7100000000000000000000000000000000000000000000000000000000600052602260045260246000fd5b6000600282049050600182168061288a57607f821691505b6020821081141561289e5761289d612843565b5b50919050565b7f456c2061646472657373207961206573746120696e636c7569646f20656e206c60008201527f61206c697374612064652070726f6665736f7265730000000000000000000000602082015250565b6000612900603583611f1a565b915061290b826128a4565b604082019050919050565b6000604082019050818103600083015261292f816128f3565b905061293e60208301846125f7565b92915050565b7f536f6c6f207065726d697469646f20616c2070726f6665736f72000000000000600082015250565b600061297a601a83611f1a565b915061298582612944565b602082019050919050565b600060208201905081810360008301526129a98161296d565b9050919050565b7f536f6c6f2073652070756564656e2063616c696669636172206120756e20616c60008201527f756d6e6f206d6174726963756c61646f2e000000000000000000000000000000602082015250565b6000612a0c603183611f1a565b9150612a17826129b0565b604082019050919050565b60006020820190508181036000830152612a3b816129ff565b9050919050565b7f4e6f2073652070756564652063616c69666963617220756e61206576616c756160008201527f63696f6e20717565206e6f206578697374652e00000000000000000000000000602082015250565b6000612a9e603383611f1a565b9150612aa982612a42565b604082019050919050565b60006020820190508181036000830152612acd81612a91565b9050919050565b7f4e6f2073652070756564652063616c69666963617220636f6e20756e61206e6f60008201527f7461207375706572696f722061206c61206d6178696d61207065726d6974696460208201527f612e000000000000000000000000000000000000000000000000000000000000604082015250565b6000612b56604283611f1a565b9150612b6182612ad4565b606082019050919050565b60006020820190508181036000830152612b8581612b49565b9050919050565b7f536f6c6f207065726d697469646f206120616c756d6e6f73206d61747269637560008201527f6c61646f73000000000000000000000000000000000000000000000000000000602082015250565b6000612be8602583611f1a565b9150612bf382612b8c565b604082019050919050565b60006020820190508181036000830152612c1781612bdb565b9050919050565b7f536f6c6f207065726d697469646f206120616c756d6e6f73206e6f206d61747260008201527f6963756c61646f73000000000000000000000000000000000000000000000000602082015250565b6000612c7a602883611f1a565b9150612c8582612c1e565b604082019050919050565b60006020820190508181036000830152612ca981612c6d565b9050919050565b7f456c20444e49206e6f2070756564652073657220766163696f00000000000000600082015250565b6000612ce6601983611f1a565b9150612cf182612cb0565b602082019050919050565b60006020820190508181036000830152612d1581612cd9565b9050919050565b600081905092915050565b6000612d32826123e5565b612d3c8185612d1c565b9350612d4c8185602086016123f0565b80840191505092915050565b6000612d648284612d27565b915081905092915050565b7f456c20444e4920636f696e6369646520636f6e20756e20616c756d6e6f206d6160008201527f74726963756c61646f0000000000000000000000000000000000000000000000602082015250565b6000612dcb602983611f1a565b9150612dd682612d6f565b604082019050919050565b60006040820190508181036000830152612dfa81612dbe565b90508181036020830152612e0e8184612423565b905092915050565b7f536f6c6f207065726d697469646f20616c20636f6f7264696e61646f72000000600082015250565b6000612e4c601d83611f1a565b9150612e5782612e16565b602082019050919050565b60006020820190508181036000830152612e7b81612e3f565b9050919050565b7f456c206e6f6d627265206465206c61206576616c756163696f6e206e6f20707560008201527f6564652073657220766163696f00000000000000000000000000000000000000602082015250565b6000612ede602d83611f1a565b9150612ee982612e82565b604082019050919050565b60006020820190508181036000830152612f0d81612ed1565b9050919050565b7f4e487b7100000000000000000000000000000000000000000000000000000000600052601160045260246000fd5b6000612f4e82612207565b9150612f5983612207565b925082821015612f6c57612f6b612f14565b5b828203905092915050565b7f456c20696e64696365206465206c61206576616c756163696f6e206e6f20657860008201527f697374652e000000000000000000000000000000000000000000000000000000602082015250565b6000612fd3602583611f1a565b9150612fde82612f77565b604082019050919050565b6000602082019050818103600083015261300281612fc6565b905091905056fea264697066735822122095a94d4908a0d8682f6986b5da3262531932795c69ab109cfde5a2e88de6881c64736f6c634300080b0033",
  "immutableReferences": {},
  "source": "// SPDX-License-Identifier: UNLICENSED\r\npragma solidity ^0.8.7;\r\n\r\n/**\r\n * El contrato Asignatura que representa una asignatura de la carrera.\r\n * Maria del Pilar Delgado Pardo y Alvaro Basante Corral\r\n * Version 2021\r\n */\r\n \r\ncontract Asignatura {\r\n\r\n /// Version 2021 - Practica\r\n uint public version = 2021;\r\n \r\n /**\r\n  * address del owner que ha desplegado el contrato.\r\n  * El contrato lo despliega el owner.\r\n  */\r\n address public owner;\r\n\r\n /// Nombre de la asignatura\r\n string public nombre;\r\n\r\n // Curso academico\r\n string public curso;\r\n\r\n\r\n /**\r\n  * Datos de una evaluacion.\r\n  */\r\n struct Evaluacion {\r\n\tstring nombre;\r\n\tuint fecha;\r\n\tuint puntos;\r\n }\r\n\r\n\r\n /// Evaluaciones de la asignatura.\r\n Evaluacion[] public evaluaciones;\r\n \r\n /// Datos de un alumno.\r\n struct DatosAlumno {\r\n\tstring nombre;\r\n\tstring DNI;\r\n\tstring email;\r\n }\r\n\r\n\r\n /// Acceder a los datos de un alumno dada su direccion.\r\n mapping (address => DatosAlumno) public datosAlumno;\r\n\r\n\r\n // Array con las direcciones de los alumnos matriculados.\r\n address[] public matriculas;\r\n\r\n // Mapping de DNIs de los alumnos\r\n mapping (string => bool) public DNIs;\r\n\r\n /// Tipos de notas: no presentado, nota entre 0 y 10, y matricula de honor.\r\n enum TipoNota { NP, Normal, MH }\r\n\r\n /**\r\n  * Datos de una nota.\r\n  * La calificacion esta multipilicada por 10 porque no hay decimales.\r\n  */\r\n struct Nota {\r\n\tTipoNota tipo;\r\n\tuint calificacion;\r\n }\r\n\r\n // Dada la direccion de un alumno, y el indice de la evaluacion, devuelve\r\n // la nota del alumno.\r\n mapping (address => mapping (uint => Nota)) public calificaciones;\r\n\r\n /**\r\n  * address del coordinador de la asignatura\r\n  */\r\n address public coordinador;\r\n\r\n // Estado de la asignatura\r\n bool public cerrada;\r\n \r\n /// Datos de un profesor.\r\n struct DatosProfesor {\r\n\tstring nombre;\r\n }\r\n\r\n /// Acceder a los datos de un profesor dada su direccion.\r\n mapping (address => DatosProfesor) public datosProfesor;\r\n\r\n\r\n // Array con las direcciones de los profesores de la asignatura.\r\n address[] public profesores;\r\n \r\n /**\r\n  * Constructor.\r\n  *\r\n  * @param _nombre Nombre de la asignatura.\r\n  * @param _curso Curso academico.\r\n  */\r\n constructor(string memory _nombre, string memory _curso) {\r\n\r\n\tbytes memory bn = bytes(_nombre);\r\n\trequire(bn.length != 0, \"El nombre de la asignatura no puede ser vacio\");\r\n\r\n\tbytes memory bc = bytes(_curso);\r\n\trequire(bc.length != 0, \"El curso academico de la asignatura no puede ser vacio\");\r\n\r\n\towner = msg.sender;\r\n\tnombre = _nombre;\r\n\tcurso = _curso;\r\n\tcerrada = false;\r\n }\r\n\r\n// Funcin para modificar el coordinador de la asignatura\r\n\tfunction setCoordinador(address _coordinador) soloAbierta soloOwner public {\r\n\t\tcoordinador = _coordinador;\r\n\t}\r\n\r\n// Mtodo para cerrar una asignatura\r\n\tfunction cerrar() soloCoordinador public {\r\n\t\tcerrada = true;\r\n\t}\r\n\r\n /**\r\n  * El numero de evaluaciones creadas.\r\n  *\r\n  * @return El numero de evaluaciones creadas.\r\n  */\r\n function evaluacionesLength() public view returns(uint) {\r\n\treturn evaluaciones.length;\r\n }\r\n\r\n\r\n /**\r\n  * Crear una prueba de evaluacion de la asignatura. Por ejemplo, el primer parcial, o la practica 3.\r\n  *\r\n  * Las evaluaciones se meteran en el array evaluaciones, y nos referiremos a ellas por su posicion en el array.\r\n  *\r\n  * @param _nombre El nombre de la evaluacion.\r\n  * @param _fecha La fecha de evaluacion (segundos desde el 1/1/1970).\r\n  * @param _puntos Los puntos que proporciona a la nota final.\r\n  *\r\n  * @return La posicion en el array evaluaciones,\r\n  */\r\nfunction creaEvaluacion(string memory _nombre, uint _fecha, uint _puntos) soloAbierta soloCoordinador public returns (uint) {\r\n\r\n\tbytes memory bn = bytes(_nombre);\r\n\trequire(bn.length != 0, \"El nombre de la evaluacion no puede ser vacio\");\r\n\r\n\tevaluaciones.push(Evaluacion(_nombre, _fecha, _puntos));\r\n\treturn evaluaciones.length - 1;\r\n }\r\n\r\n /**\r\n  * El numero de alumnos matriculados.\r\n  *\r\n  * @return El numero de alumnos matriculados.\r\n  */\r\n function matriculasLength() public view returns(uint) {\r\n\treturn matriculas.length;\r\n }\r\n\r\n\r\n error MyError(string mensaje, string dni);\r\n /**\r\n  * Los alumnos pueden automatricularse con el metodo automatricula.\r\n  *\r\n  * Impedir que se pueda meter un nombre vacio.\r\n  * Impedir que se pueda meter un DNI vacio.\r\n  * El DNI debe ser unico\r\n  *\r\n  * @param _nombre El nombre del alumno.\r\n  * @param _DNI El DNI del alumno.\r\n  * @param _email El email del alumno.\r\n  */\r\n function automatricula(string memory _nombre, string memory _DNI, string memory _email) soloAbierta noMatriculados public {\r\n  \r\n\tbytes memory b = bytes(_nombre);\r\n\trequire(b.length != 0, \"El nombre no puede ser vacio\");\r\n\r\n\tbytes memory d = bytes(_DNI);\r\n\trequire(d.length != 0, \"El DNI no puede ser vacio\");\r\n\r\n  bool yaAdd = DNIs[_DNI];\r\n\r\n\tif(yaAdd){\r\n\t//lanzar error\r\n\trevert MyError({mensaje:\"El DNI coincide con un alumno matriculado\",dni:_DNI});\r\n\t}else{\r\n\t\tDatosAlumno memory datos = DatosAlumno(_nombre, _DNI, _email);\r\n\r\n\t\tdatosAlumno[msg.sender] = datos;\r\n\r\n\t\tmatriculas.push(msg.sender);\r\n\r\n    DNIs[_DNI] = true;\r\n\t}\r\n }\r\n\r\n /**\r\n  * Permite a un alumno obtener sus propios datos.\r\n  *\r\n  * @return _nombre El nombre del alumno que invoca el metodo.\r\n  * @return _DNI El DNI del alumno que invoca el metodo.\r\n  * @return _email El email del alumno que invoca el metodo.\r\n  */\r\n function quienSoy() soloMatriculados public view returns (string memory _nombre, string memory _DNI, string memory _email) {\r\n\tDatosAlumno memory datos = datosAlumno[msg.sender];\r\n\t_nombre = datos.nombre;\r\n\t_DNI = datos.DNI;\r\n\t_email = datos.email;\r\n }\r\n\r\nerror MyError2(string mensaje, address direccion);\r\n /**\r\n  * Solo el owner puede aadir profesores a la asignatura\r\n  *\r\n  * Impedir que se pueda meter un nombre vacio.\r\n  * Dos profesores pueden tener el mismo nombre.\r\n  * Impedir que el profesor se aada varias veces.\r\n  *\r\n  * @param _profesor La direccin del profesor.\r\n  * @param _nombre El nombre del profesor.\r\n  */\r\nfunction addProfesor(address _profesor, string memory _nombre) soloAbierta soloOwner public{\r\n\tbytes memory b = bytes(_nombre);\r\n\trequire(b.length != 0, \"El nombre no puede ser vacio\");\r\n\t\r\n  bytes memory c = bytes(datosProfesor[_profesor].nombre);\r\n  if(c.length != 0){\r\n\t//lanzar error\r\n\trevert MyError2({mensaje:\"El address ya esta incluido en la lista de profesores\",direccion:_profesor});\r\n\t}else{\r\n\t\tDatosProfesor memory datos = DatosProfesor(_nombre);\r\n\t\tdatosProfesor[_profesor] = datos;\r\n\t\tprofesores.push(_profesor);\r\n\t}\r\n}\r\n\r\n /**\r\n  * El numero de profesores de la asignatura.\r\n  *\r\n  * @return El numero de profesores de la asignatura.\r\n  */\r\n function profesoresLength() public view returns(uint) {\r\n\treturn profesores.length;\r\n }\r\n \r\n  /**\r\n  * Permite obtener el nombre de un profesor teniendo su direccion.\r\n  *\r\n  * @param _profesor Direccion del profesor\r\n  * @return _nombre El nombre del profesor\r\n  * \r\n  */\r\n function nombreProfe(address _profesor) public view returns (string memory _nombre){\r\n    DatosProfesor memory datos = datosProfesor[_profesor];\r\n\t  _nombre = datos.nombre;\r\n }\r\n\r\n\r\n /**\r\n  * Poner la nota de un alumno en una evaluacion.\r\n  *\r\n  * @param alumno La direccion del alumno.\r\n  * @param evaluacion El indice de una evaluacion en el array evaluaciones.\r\n  * @param tipo Tipo de nota.\r\n  * @param calificacion La calificacion, multipilicada por 100 porque no hay decimales.\r\n  */\r\n function califica(address alumno, uint evaluacion, TipoNota tipo, uint calificacion) soloAbierta soloProfesor public {\r\n\r\n\trequire(estaMatriculado(alumno), \"Solo se pueden calificar a un alumno matriculado.\");\r\n\trequire(evaluacion < evaluaciones.length, \"No se puede calificar una evaluacion que no existe.\");\r\n\trequire(calificacion <= 100, \"No se puede calificar con una nota superior a la maxima permitida.\");\r\n\t\r\n\tNota memory nota = Nota(tipo, calificacion);\r\n\r\n\tcalificaciones[alumno][evaluacion] = nota;\r\n }\r\n\r\n\r\n /**\r\n  * Consulta si una direccion pertenece a un alumno matriculado.\r\n  *\r\n  * @param alumno La direccion de un alumno.\r\n  *\r\n  * @return true si es una alumno matriculado.\r\n  */\r\n function estaMatriculado(address alumno) private view returns (bool) {\r\n\r\n\tstring memory _nombre = datosAlumno[alumno].nombre;\r\n\r\n\tbytes memory b = bytes(_nombre);\r\n\r\n\treturn b.length != 0;\r\n }\r\n\r\n\r\n /**\r\n  * Devuelve el tipo de nota y la calificacion que ha sacado el alumno que invoca el metodo en la evaluacion pasada como parametro.\r\n  *\r\n  * @param evaluacion Indice de una evaluacion en el array de evaluaciones.\r\n  *\r\n  * @return tipo El tipo de nota que ha sacado el alumno.\r\n  * @return calificacion La calificacion que ha sacado el alumno.\r\n  */\r\n function miNota(uint evaluacion) soloMatriculados public view returns (TipoNota tipo, uint calificacion) {\r\n\r\n\trequire(evaluacion < evaluaciones.length, \"El indice de la evaluacion no existe.\");\r\n\r\n\tNota memory nota = calificaciones[msg.sender][evaluacion];\r\n\r\n\ttipo = nota.tipo;\r\n\tcalificacion = nota.calificacion;\r\n }\r\n\r\n /**\r\n  * Modificador para que una funcion solo la pueda ejecutar el owner.\r\n  *\r\n  * Se usa en setCoordinador y en addProfesor.\r\n  */\r\n modifier soloOwner() {\r\n\r\n\trequire(msg.sender == owner, \"Solo permitido al owner\");\r\n\t_;\r\n }\r\n \r\n  /**\r\n  * Modificador para que una funcion solo la pueda ejecutar el coordinador.\r\n  *\r\n  * Se usa en cerrar y en crearEvaluacion.\r\n  */\r\n modifier soloCoordinador() {\r\n\r\n\trequire(msg.sender == coordinador, \"Solo permitido al coordinador\");\r\n\t_;\r\n }\r\n \r\n /**\r\n  * Modificador para que una funcion solo la pueda ejecutar el profesor.\r\n  *\r\n  * Se usa en califica.\r\n  */\r\n modifier soloProfesor() {\r\n   \r\n\tstring memory _nombre = datosProfesor[msg.sender].nombre;\r\n\tbytes memory b = bytes(_nombre);\r\n\r\n\trequire(b.length != 0, \"Solo permitido al profesor\");\r\n\t_;\r\n }\r\n \r\n /**\r\n  * Modificador para que una funcion solo la pueda ejecutar un alumno matriculado.\r\n  * Se usa en quienSoy y miNota\r\n  */\r\n modifier soloMatriculados() {\r\n\r\n\trequire(estaMatriculado(msg.sender), \"Solo permitido a alumnos matriculados\");\r\n\t_;\r\n }\r\n\r\n\r\n /**\r\n  * Modificador para que una funcion solo la pueda ejecutar un alumno no matriculado aun.\r\n  * Se usa en automatricula\r\n  */\r\n modifier noMatriculados() {\r\n\r\n\trequire(!estaMatriculado(msg.sender), \"Solo permitido a alumnos no matriculados\");\r\n\t_;\r\n }\r\n \r\n /**\r\n  * Modificador para una asignatura abierta.\r\n  *\r\n  * Se usa en setCoordinador, addProfesor, automatricula, crearEvaluacion y califica.\r\n  */\r\n modifier soloAbierta() {\r\n\r\n\trequire(!cerrada, \"Solo permitido si la asignatura esta abierta\");\r\n\t_;\r\n }\r\n\r\n /**\r\n  * No se permite la recepcion de dinero.\r\n  */\r\n receive() external payable {\r\n\trevert(\"No se permite la recepcion de dinero.\");\r\n }\r\n}",
  "sourcePath": "C:\\Users\\Pi\\Desktop\\muit-2\\BCDA\\P4\\Asignatura\\contracts\\Asignatura.sol",
  "compiler": {
    "name": "solc",
    "version": "0.8.11+commit.d7f03943.Emscripten.clang"
  },
  "schemaVersion": "3.4.3",
  "updatedAt": "2021-12-24T16:51:48.168Z",
  "networkType": "ethereum",
  "devdoc": {
    "kind": "dev",
    "methods": {
      "addProfesor(address,string)": {
        "params": {
          "_nombre": "El nombre del profesor.",
          "_profesor": "La direccin del profesor."
        }
      },
      "automatricula(string,string,string)": {
        "params": {
          "_DNI": "El DNI del alumno.",
          "_email": "El email del alumno.",
          "_nombre": "El nombre del alumno."
        }
      },
      "califica(address,uint256,uint8,uint256)": {
        "params": {
          "alumno": "La direccion del alumno.",
          "calificacion": "La calificacion, multipilicada por 100 porque no hay decimales.",
          "evaluacion": "El indice de una evaluacion en el array evaluaciones.",
          "tipo": "Tipo de nota."
        }
      },
      "constructor": {
        "params": {
          "_curso": "Curso academico.",
          "_nombre": "Nombre de la asignatura."
        }
      },
      "creaEvaluacion(string,uint256,uint256)": {
        "params": {
          "_fecha": "La fecha de evaluacion (segundos desde el 1/1/1970).",
          "_nombre": "El nombre de la evaluacion.",
          "_puntos": "Los puntos que proporciona a la nota final."
        },
        "returns": {
          "_0": "La posicion en el array evaluaciones,"
        }
      },
      "evaluacionesLength()": {
        "returns": {
          "_0": "El numero de evaluaciones creadas."
        }
      },
      "matriculasLength()": {
        "returns": {
          "_0": "El numero de alumnos matriculados."
        }
      },
      "miNota(uint256)": {
        "params": {
          "evaluacion": "Indice de una evaluacion en el array de evaluaciones."
        },
        "returns": {
          "calificacion": "La calificacion que ha sacado el alumno.",
          "tipo": "El tipo de nota que ha sacado el alumno."
        }
      },
      "nombreProfe(address)": {
        "params": {
          "_profesor": "Direccion del profesor"
        },
        "returns": {
          "_nombre": "El nombre del profesor "
        }
      },
      "profesoresLength()": {
        "returns": {
          "_0": "El numero de profesores de la asignatura."
        }
      },
      "quienSoy()": {
        "returns": {
          "_DNI": "El DNI del alumno que invoca el metodo.",
          "_email": "El email del alumno que invoca el metodo.",
          "_nombre": "El nombre del alumno que invoca el metodo."
        }
      }
    },
    "version": 1
  },
  "userdoc": {
    "kind": "user",
    "methods": {
      "addProfesor(address,string)": {
        "notice": "Solo el owner puede aadir profesores a la asignatura Impedir que se pueda meter un nombre vacio. Dos profesores pueden tener el mismo nombre. Impedir que el profesor se aada varias veces."
      },
      "automatricula(string,string,string)": {
        "notice": "Los alumnos pueden automatricularse con el metodo automatricula. Impedir que se pueda meter un nombre vacio. Impedir que se pueda meter un DNI vacio. El DNI debe ser unico"
      },
      "califica(address,uint256,uint8,uint256)": {
        "notice": "Poner la nota de un alumno en una evaluacion."
      },
      "constructor": {
        "notice": "Constructor."
      },
      "coordinador()": {
        "notice": "address del coordinador de la asignatura"
      },
      "creaEvaluacion(string,uint256,uint256)": {
        "notice": "Crear una prueba de evaluacion de la asignatura. Por ejemplo, el primer parcial, o la practica 3. Las evaluaciones se meteran en el array evaluaciones, y nos referiremos a ellas por su posicion en el array."
      },
      "datosAlumno(address)": {
        "notice": "Acceder a los datos de un alumno dada su direccion."
      },
      "datosProfesor(address)": {
        "notice": "Acceder a los datos de un profesor dada su direccion."
      },
      "evaluaciones(uint256)": {
        "notice": "Evaluaciones de la asignatura."
      },
      "evaluacionesLength()": {
        "notice": "El numero de evaluaciones creadas."
      },
      "matriculasLength()": {
        "notice": "El numero de alumnos matriculados."
      },
      "miNota(uint256)": {
        "notice": "Devuelve el tipo de nota y la calificacion que ha sacado el alumno que invoca el metodo en la evaluacion pasada como parametro."
      },
      "nombre()": {
        "notice": "Nombre de la asignatura"
      },
      "nombreProfe(address)": {
        "notice": "Permite obtener el nombre de un profesor teniendo su direccion."
      },
      "owner()": {
        "notice": "address del owner que ha desplegado el contrato. El contrato lo despliega el owner."
      },
      "profesoresLength()": {
        "notice": "El numero de profesores de la asignatura."
      },
      "quienSoy()": {
        "notice": "Permite a un alumno obtener sus propios datos."
      },
      "version()": {
        "notice": "Version 2021 - Practica"
      }
    },
    "notice": "El contrato Asignatura que representa una asignatura de la carrera. Maria del Pilar Delgado Pardo y Alvaro Basante Corral Version 2021",
    "version": 1
  }
}